:100000000C940C030C94DF1E0C940C1F0C94340302
:100010000C9434030C9434030C9477030C94340341
:100020000C9434030C9434030C9434030C94340374
:100030000C9434030C9434030C9434030C94340364
:100040000C94391F0C9434030C94AD230C94F023BE
:100050000C9434030C94B8140C9434030C943403AF
:100060000C949C1B0C943403160A7909210A210A6A
:10007000210A210A9D09210A6509210A210A210A6A
:10008000210A210A210AB709210A210A160A210A8E
:10009000210AFF09737461727475702E2E2E004F41
:1000A00070656E456E657267794D6F6E69746F72BB
:1000B0002E6F726700656D6F6E506920560020626A
:1000C0000A00202D3E200029002800200020004F9B
:1000D0004B0020282D30290020004F4B2000204EBF
:1000E0006574776F726B20003931354D687A00384E
:1000F00036384D687A003433334D687A00204672C2
:10010000657120004E6F6465200052464D363943BC
:100110005720496E69743A2000426F6F74696E67A8
:100120002E2E2E00526173706265727279205069B2
:1001300000445331384232302054656D70004465BC
:100140007465637465643A2000302044533138424A
:1001500032302064657465637465640044533138DB
:100160004232302054656D70004465746563746577
:10017000643A2000204453313842323000446574E0
:100180006563742000435432004354203220646578
:10019000746563740043543120004354203120645B
:1001A0006574656374004E6F2043542773006E6F4F
:1001B0002043542064657465637465640044657409
:1001C000656374656420005600417373756D696ED4
:1001D000672056524D533A2000555341206D6F64AD
:1001E00065004143204E4F54206465746563746517
:1001F00064202D204170706172656E7420506F779D
:1002000065722063616C6320656E61626C65640079
:100210004143204E4F542044657465637465640007
:10022000560056726D733A20005663616C3A200096
:10023000555341206D6F6465203E20004143205797
:10024000617665204465746563746564202D205271
:1002500065616C20506F7765722063616C63206507
:100260006E61626C6564004143205761766520448D
:100270006574656374656400560056524D532041A1
:1002800043207E00435420322043616C3A200043D7
:100290005420312043616C3A20004F70656E456EEA
:1002A000657267794D6F6E00656D6F6E506920568F
:1002B000002000205553412000204D487A00204066
:1002C000200020670020690020000A417661696CE7
:1002D00061626C6520636F6D6D616E64733A0A20B4
:1002E000203C6E6E3E206920202020202D2073654A
:1002F00074206E6F64652049447320287374616EA6
:1003000064617264206E6F64652069647320617239
:100310006520312E2E3330290A20203C6E3E20628B
:100320002020202020202D20736574204D487A2025
:1003300062616E64202834203D203433332C203811
:10034000203D203836382C2039203D2039313529C0
:100350000A20203C6E6E6E3E2067202020202D203B
:10036000736574206E6574776F726B2067726F753A
:1003700070202852464D3132206F6E6C7920616CAE
:100380006C6F7773203231322C2030203D20616E2B
:1003900079290A20203C6E3E206320202020202046
:1003A0002D2073657420636F6C6C656374206D6FB2
:1003B00064652028616476616E6365642C206E6FCD
:1003C000726D616C6C792030290A20202E2E2E2C23
:1003D0003C6E6E3E2061202D2073656E642064614A
:1003E0007461207061636B657420746F206E6F643C
:1003F00065203C6E6E3E2C207265717565737420AD
:1004000061636B0A20202E2E2E2C3C6E6E3E2073D4
:10041000202D2073656E64206461746120706163B7
:100420006B657420746F206E6F6465203C6E6E3E49
:100430002C206E6F2061636B0A20202E2E2E2C3C08
:100440006E3E207020202D205365742041432041B2
:10045000646170746572205663616C203170203D58
:1004600020554B2C203270203D205553410A20202E
:1004700076202020202020202020202D2053686F4F
:1004800077206669726D776172652076657273692F
:100490006F6E0A00010402000302048A050506C308
:1004A0000B2019421E2C25802E882F2D3700380056
:1004B0003C8F3D106F2000005EBCE2613FDD83C2D7
:1004C0009C7E20A3FD1F419DC3217FFCA2401E5F97
:1004D00001E3BD3E6082DC237D9FC1421CFEA0E1A2
:1004E000BF5D0380DE3C62BEE0025CDF81633D7C79
:1004F00022C09E1D43A1FF4618FAA427799BC584FC
:10050000DA3866E5BB5907DB856739BAE40658195E
:1005100047A5FB7826C49A653BD987045AB8E6A755
:10052000F91B45C6987A24F8A6441A99C7257B3A40
:100530006486D85B05E7B98CD2306EEDB3510F4EAF
:1005400010F2AC2F7193CD114FADF3702ECC92D32E
:100550008D6F31B2EC0E50AFF1134DCE90722C6D09
:1005600033D18F0C52B0EE326C8ED0530DEFB1F010
:10057000AE4C1291CF2D73CA947628ABF51749086B
:1005800056B4EA6937D58B5709EBB536688AD495E6
:10059000CB2977F4AA4816E9B7550B88D6346A2BCD
:1005A0007597C94A14F6A8742AC896154BA9F7B6C8
:1005B000E80A54D7896B35000000070002010000EB
:1005C00003040600000000000000000102040810FF
:1005D00020408001020408102001020408102004B9
:1005E00004040404040404020202020202030303DA
:1005F0000303030000000023002600290000000080
:1006000000250028002B0000000000240027002AFD
:100610000000EA08FE1AAC2411241FBECFEFD8E078
:10062000DEBFCDBF11E0A0E0B1E0E4E5F0E502C03F
:1006300005900D92AE36B107D9F715E0AEE6B1E000
:1006400001C01D92A733B107E1F716E0C8E1D6E07B
:1006500004C02297FE010E942428C231D107C9F7A5
:100660000E9408230C9428280C9400000F931F93D9
:100670000E94831F0091BA011091BB012091BC011F
:100680003091BD01601B710B820B930B6F367105AE
:100690008105910528F08091C2018F5F8093C2018E
:1006A0000E94831F6093BA017093BB018093BC01C9
:1006B0009093BD011F910F9108951F93CF93DF93E6
:1006C000EC01FE011491112371F01A3029F46DE050
:1006D0008DE894E00E94FF20612F8DE894E00E9455
:1006E000FF202196EECFDF91CF911F9108951F92A9
:1006F0000F920FB60F9211242F933F934F935F9356
:100700006F937F938F939F93AF93BF93EF93FF93D9
:100710000E94A80DFF91EF91BF91AF919F918F9192
:100720007F916F915F914F913F912F910F900FBEED
:100730000F901F90189561E089E00E94501E62E3BF
:1007400070E080E090E00E94B21F60E089E00C94CD
:10075000501E61E089E00E94501E69E170E080E077
:1007600090E00E94B21F60E089E00E94501E61E0AC
:1007700089E00E94501E69E170E080E090E00E94F4
:10078000B21F60E089E00C94501E80E492E00E9469
:10079000EC1D80E492E00E94F21C68EA72E080E4C2
:1007A00092E00E94D82022E030E04DEC5CEC6CE45A
:1007B00070E480E492E00E94F42241E060E080E492
:1007C00092E00E94531D6AE972E080E492E00C948A
:1007D000D82080E492E00E94451D6FE872E08DE829
:1007E00094E00E94D82022E030E04DEC5CEC65EB18
:1007F00072E48DE894E00E94F62264E872E08DE8ED
:1008000094E00E94D82022E030E04DEC5CEC65EBF7
:1008100072E48DE894E00E94F6226AE772E08DE8C7
:1008200094E00E94D8204091CD015091CE0160917A
:10083000CF017091D00122E030E08DE894E00E9479
:10084000F42268E772E08DE894E00E941A2180911A
:10085000CA018823D9F167E672E080E492E00E9441
:10086000D8206CE372E08DE894E00E941A21809118
:100870003F02813031F460E372E08DE894E00E9441
:10088000D82069E272E08DE894E00E94D82040917F
:10089000D1015091D2016091D3017091D40122E035
:1008A00030E08DE894E00E94F62262E272E08DE88A
:1008B00094E00E94D8204AE050E06091C7018DE8A2
:1008C00094E00E94FC2160E272E026C060E172E0E8
:1008D00080E492E00E94D82062EE71E08DE894E01E
:1008E0000E941A2180913F02813031F469ED71E05C
:1008F0008DE894E00E941A2169EC71E08DE894E0A3
:100900000E94D8204AE050E06091C7018DE894E051
:100910000E94FC2167EC71E08DE894E00E941A21AE
:1009200041E060E080E492E00E94531D6DEB71E0D5
:1009300080E492E00E94D8208091C801811109C012
:100940006EEA71E08DE894E00E941A2166EA71E097
:100950001CC08091CC01882361F06AE971E08DE8C8
:1009600094E00E941A2165E971E080E492E00E941F
:10097000D8208091CB01882361F069E871E08DE88F
:1009800094E00E941A2165E871E080E492E00E9400
:10099000D82060ED77E080E090E00E94B21F809167
:1009A000C901813079F56DE771E08DE894E00E942E
:1009B000D8204AE050E06091ED018DE894E00E947B
:1009C000FC2164E771E08DE894E00E941A2180E444
:1009D00092E00E94451D69E671E080E492E00E9489
:1009E000D8204AE050E06091ED0180E492E00E945E
:1009F000FC2141E060E080E492E00E94531D6CE540
:100A000071E020C069E471E08DE894E00E941A2151
:100A100080E492E00E94451D6EE371E080E492E084
:100A20000E94D8204AE050E06091ED0180E492E01D
:100A30000E94FC2141E060E080E492E00E94531DAE
:100A400061E371E080E492E00E94D82060ED77E0FD
:100A500080E090E00E94B21F80E492E00E94451D79
:100A600064E271E080E492E00E94D82041E060E01E
:100A700080E492E00E94531D69E171E080E492E01D
:100A80000E94D82080910401813009F04CC06AE0B6
:100A900071E08DE894E00E941A2164E071E08DE835
:100AA00094E00E94D8204AE050E0609102018DE875
:100AB00094E00E94FC216DEF70E08DE894E00E94CC
:100AC000D82080910301813031F466EF70E08DE829
:100AD00094E00E94D82080910301823031F46FEEBF
:100AE00070E08DE894E00E94D8208091030183306B
:100AF00031F468EE70E08DE894E00E94D8206EED4D
:100B000070E08DE894E00E94D8206091000170911F
:100B100001014AE050E08DE894E00E94D7218AEC80
:100B200092E00E945D0364E170E080E090E00C944C
:100B3000B21FEF92FF920F931F93CF93DF93CDB726
:100B4000DEB768970FB6F894DEBF0FBECDBF88E161
:100B5000E5EDF1E0DE01119601900D928A95E1F745
:100B60006AED70E08DE894E00E94D8204AE050E001
:100B7000609102018DE894E00E94FC218E010F5FDC
:100B80001F4F7E0189E1E80EF11C68ED70E08DE8F1
:100B900094E00E94D820F80161918F014AE050E072
:100BA0008DE894E00E94FC210E151F0571F762ED9F
:100BB00070E08DE894E00E94D8208DE894E00E94D7
:100BC00006216AE070E080E090E068960FB6F89445
:100BD000DEBF0FBECDBFDF91CF911F910F91FF9070
:100BE000EF900C94B21FCF93DF936AE070E080E047
:100BF00090E00E94B21F20E436E040910001609135
:100C00000301809102010E94AE0DCAE0D0E0D093B2
:100C1000D601C093D50148E165ED71E080E00E9406
:100C20001D0E64E670E080E090E00E94B21F219704
:100C300070F782E00E943C0E1092D6011092D5010E
:100C4000DF91CF910895FF920F931F93CF93DF937E
:100C50000E94070E882309F461C0F0905D02809124
:100C6000A3029091A402892B09F059C06FEC70E0A7
:100C70008DE894E00E94D8206DEC70E08DE894E05F
:100C80000E94D82060915C026F7170E04AE050E0F1
:100C90008DE894E00E94CF216BEC70E08DE894E049
:100CA0000E94D8200EE512E0E8018C2F801B8F15E2
:100CB00070F4699170E04AE050E08DE894E00E94A1
:100CC000032260E28DE894E00E94FF20EECF69EC01
:100CD00070E08DE894E00E94D8206091500270E0AE
:100CE000759567957195619571094AE050E08DE8B9
:100CF00094E00E94CF2167EC70E08DE894E00E94C0
:100D0000D8208DE894E00E94062180915C0285FF46
:100D100015C080915C0287FF04C010C013C080E042
:100D200011C080915C0286FD0BC080915C028F71C6
:100D3000806C40E060E070E00E941B0E81E002C029
:100D400080E8F7CFDF91CF911F910F91FF90089529
:100D5000809170018823D1F10E94190E811101C088
:100D6000089561E089E00E94501E68EC70E080E028
:100D700090E00E94B21F60E089E00E94501E82EC69
:100D800090E00E945D036091720170E04AE050E0E3
:100D90008DE894E00E9403228EEB90E00E945D03B8
:100DA00080917001813681F080E0909171019923EA
:100DB00011F09064892B4091720164E771E00E9408
:100DC0001B0E10927001089580E2EFCF0895BF923C
:100DD000CF92DF92EF92FF920F931F93CF93DF9307
:100DE000B82EEB0100E010E0C12CD12C76010C17DD
:100DF0001D077CF48B2D0E941E20DC01B2509D014A
:100E00000E947827C60ED71EE81EF91E0F5F1F4FDF
:100E1000EECFC701B6010E9404266B017C01BE0122
:100E2000882777FD8095982F0E9406269B01AC01AC
:100E3000C701B6010E946B25DF91CF911F910F91E1
:100E4000FF90EF90DF90CF90BF900C94212761E04E
:100E500089E00E94171E61E089E00E94501E62E056
:100E600088E00E94171E61E085E00E94171E60E086
:100E700085E00E94501E62E083E00E94171E40E061
:100E800056E960E070E08DE894E00E942B2465EB69
:100E900070E08DE894E00E94D82022E030E04DEC34
:100EA0005CEC6CE470E48DE894E00E94F6226FE95B
:100EB00070E08DE894E00E941A2164E970E08DE80A
:100EC00094E00C941A2181E00E941E201816190645
:100ED0004CF481E08093CC018091C8018F5F8093B6
:100EE000C80102C01092CC0182E00E941E20181698
:100EF00019064CF481E08093CB018091C8018F5F8B
:100F00008093C80102C01092CB018091C801811169
:100F100003C081E08093CC0160E089E00E94501E14
:100F200061E08EE00E94171E6FEF70E08EE00E947D
:100F30003B2060E070E08EE00E943B2060E08EE0AD
:100F40000E94171E64EF71E080E090E00E94B21FE3
:100F500064EF76E080E090E00E94E70622E538EB5F
:100F60004EE55FE30E94BA266093CD017093CE01F7
:100F70008093CF019093D00120E030E044EB52E425
:100F80000E94B626181624F481E08093CA010895C1
:100F90001092CA010895CF938EE192E00E947918D1
:100FA0008EE192E00E94F2168093ED01C0E0809104
:100FB000ED01C81768F488E0C89FB00111246251A0
:100FC0007E4F41E081E392E00E943916811123C0F7
:100FD000C0E08091ED01C81768F488E0C89FB001B7
:100FE000112462517E4F4CE08EE192E00E94031882
:100FF000CF5FEFCF811103C01092C90108C091E00B
:101000009093C901873018F086E08093ED018091BC
:10101000ED01CF910895CF5FCACF64E670E080E024
:1010200090E00E94B21F80910501813091F480917F
:10103000060190910701A0910801B09109018093E8
:10104000D1019093D201A093D301B093D40186EF44
:1010500023C080913F02813071F480E090E0A2E0F3
:10106000B3E48093D1019093D201A093D301B093C4
:10107000D4018EE611C080910A0190910B01A091DC
:101080000C01B0910D018093D1019093D201A093F6
:10109000D301B093D40186EE8093C7010E94270745
:1010A00080910401813011F40E94F3050E94CB0766
:1010B0000E94C5036CED75E080E090E00E94B21FD5
:1010C0000E9463070E94E90342E050E066E373E098
:1010D00081E00E94AF1E1092E9011092EA01109285
:1010E000EB011092EC0182E090E00E945B0E82E343
:1010F00090E00E94600E60E070E080E89FE30E9454
:10110000810E8AE090E00E947C0E2DE038E149E4F7
:101110005BE36091D1017091D2018091D3019091F4
:10112000D4010E94BA260E94AA0E41EB51E266E960
:101130007EE380E090E00E94B30E41EB51E266E96D
:101140007EE381E090E00E94B30E4EEA57E461E650
:101150007EE380E090E00E94BF0E45E85BEE61ED2B
:101160007EE381E090E00E94BF0E0C94FE0ECF92D1
:10117000DF92EF92FF9298E0899FB00111246251B3
:101180007E4F8EE192E00E940D1A6B017C0120E0FF
:1011900030E04AEF52E40E94672587FF16C020E046
:1011A00030E04CE552ECC701B6010E94B626181695
:1011B00064F420E030E040E251E4C701B6010E944F
:1011C000BA260E94D325CB0100C0FF90EF90DF909C
:1011D000CF90089522E040E167E280E492E00E942F
:1011E000C91C64E081E392E00E94161661E372E09C
:1011F0008EE192E00C94E316CF92DF92EF92FF9291
:10120000CF93DF9300D000D0CDB7DEB70E94831F0D
:101210006093BE017093BF018093C0019093C101A0
:1012200088E00E94861E892B11F461E001C060E015
:1012300085E00E94501E8DE894E00E941523892BC2
:1012400009F477C18DE894E00E94422390ED980F55
:101250009A30A8F440916E0150916F019AE0949FEA
:101260009001959F300D112420533109280F311D15
:1012700087FD3A9530936F0120936E0158C18C32EF
:1012800081F4E0917301E63408F04DC181E08E0FE6
:1012900080937301F0E0EC58FE4F80916E018083E3
:1012A00042C181320CF43DC1482F552747FD50956E
:1012B000652F752FFA01E156F109E631F10508F0C5
:1012C000C0C0EC5CFF4F0C94222880916E0190917D
:1012D0006F01009771F08093020120910401213089
:1012E00009F0B3C020E436E04091000160910301B1
:1012F0003BC080916E01843031F0883031F089300C
:1013000031F463E005C061E003C062E001C060E069
:10131000862F90E090936F0180936E01892B09F4E2
:1013200094C06093030180910401813009F08DC065
:1013300020E436E04091000115C040916E015091CB
:101340006F014115510509F480C05093010140938C
:10135000000180910401813009F077C020E436E07B
:1013600060910301809102010E94AE0D6EC08091D8
:101370006E0190916F01009709F467C0813091056B
:1013800019F410923F0205C0029719F481E080938E
:101390003F0280913F02813071F480E090E0A2E052
:1013A000B3E48093D1019093D201A093D301B09381
:1013B000D4018EE611C080910A0190910B01A09199
:1013C0000C01B0910D018093D1019093D201A093B3
:1013D000D301B093D40186EE8093C7012DE038E6A7
:1013E00043E55BE36091D1017091D2018091D3011B
:1013F0009091D4010E94BA260E94AA0E26C066E2ED
:1014000071E08DE894E00E94FD2022E030E04DEC98
:101410005CEC6CE470E48DE894E00E94F4226FE2EE
:1014200071E08DE894E00E94FD200FC08093700170
:10143000809173018093720180916E01809371019C
:1014400004C08AEC92E00E945D0380910401813027
:1014500009F053C068EC72E08DE894E00E94D82057
:10146000609102016F71605C8DE894E00E94FF2042
:1014700065EC72E08DE894E00E94D8206091020152
:101480006F7170E04AE050E08DE894E00E94CF2157
:1014900062EC72E08DE894E00E94D8206091000137
:1014A000709101014AE050E08DE894E00E94CF2164
:1014B0006EEB72E08DE894E00E94D82080910301E9
:1014C000813039F0823041F0833049F463E973E0D0
:1014D00008C061EB71E005C064E673E002C060E043
:1014E00070E04AE050E08DE894E00E94CF2169EB83
:1014F00072E08DE894E00E94D82063EB72E08DE802
:1015000094E00E94D8204AE050E060913F028DE8CC
:1015100094E00E94FC2161EB72E08DE894E00E946F
:101520001A211092730110926F0110926E010E94A5
:10153000A90380910401813041F40E942306813087
:1015400011F40E94A9030E94A8060E942111882379
:1015500009F474C0809188034091CC01882331F153
:10156000209186033091870354E6529FC001539F18
:10157000900D11249093DC018093DB01442341F012
:1015800080E090E00E94CB0E9093D6018093D5012D
:101590008091CB01882309F451C081E090E00E9442
:1015A000CB0E9093D8018093D70148C08091C7019A
:1015B000E82EF12C24E6829FC00111249093DC01D7
:1015C0008093DB014423E9F080E090E00E94D30E99
:1015D0009B01AC01B701882777FD8095982F29835F
:1015E0003A834B835C830E94062629813A814B8192
:1015F0005C810E94BA260E94D3257093D601609325
:10160000D5018091CB018823C9F06091C70170E0BA
:1016100080E090E00E9406266B017C0181E090E072
:101620000E94D30E9B01AC01C701B6010E94BA26ED
:101630000E94D3257093D8016093D7016091BE01B9
:101640007091BF018091C0019091C101C090C30110
:10165000D090C401E090C501F090C6016C197D09DD
:101660008E099F090E94042620E030E040E85FE3F5
:101670000E94B62618160CF05BC00E949B03809156
:10168000D5019091D6012091D7013091D801820FD8
:10169000931F9093DA018093D9018091C901813021
:1016A000F9F08091C201882389F1F8942091C20158
:1016B0008091E9019091EA01A091EB01B091EC01D8
:1016C000820F911DA11DB11D8093E9019093EA0144
:1016D000A093EB01B093EC011092C201789416C074
:1016E0008EE192E00E944919F12C8091ED01F816EB
:1016F000C0F68F2D0E94B708EF2DF0E0EE0FFF1F10
:10170000E352FE4F91838083F394EFCF0E949905BB
:101710008091BE019091BF01A091C001B091C10123
:101720008093C3019093C401A093C501B093C601F7
:101730000F900F900F900F90DF91CF91FF90EF904F
:10174000DF90CF9008958627682F62956827062E30
:10175000669566956025062E669560256770082E4D
:10176000892F669507946795902D8627069467952F
:10177000902586270895E8982A988EBD0DB407FE17
:10178000FDCF8EB56EBD0DB407FEFDCF8EB52A9A86
:10179000E89A089560E00C94BB0B88E20E94CA0BA3
:1017A000807521F080E00E94CA0BF7CF0895CF9397
:1017B000C82F81E00E94CA0B682F637E6C2B81E8E2
:1017C000CF910C94BB0B22E0660F771F881F991FE7
:1017D0002A95D1F729E03DE340E050E00E94E1275F
:1017E00066E0220F331F441F551F6A95D1F72093DF
:1017F0005502309356024093570250935802089571
:1018000080914E02853021F480914F02882311F09F
:1018100080E0089584E080934E020E94D70B81E01F
:10182000089590914E0281E094300CF080E008958C
:10183000CF93DF932A9A229A2A9A84B18C6284B930
:1018400080E58CBD8DB581608DBD6AEA8FEA0E940E
:10185000BB0B8FE20E94CA0B8A3AB9F765E58FEAA3
:101860000E94BB0B8FE20E94CA0B8535B9F7C4E911
:10187000D4E0FE018491882339F031966491806828
:101880000E94BB0B2296F5CF6091540280EB0E9420
:10189000BB0B8091550290915602A0915702B091D6
:1018A0005802BD018827992787E80E94BB0B8091C9
:1018B000550290915602A0915702B0915802692F9B
:1018C0007A2F8B2F992788E80E94BB0B60915502D5
:1018D00089E80E94BB0B84E080934E02DF91CF9198
:1018E0000895CF93DF93EC0180914E02843019F07C
:1018F000853021F14DC010925D0210924F0260912F
:1019000054028FEF9FEF0E94A30B9093520280939B
:101910005102D0934D02C0934C0285E080934E0259
:101920000E94CD0B60E885EA0E94BB0B80E10E941B
:10193000D70B62E08EE90E94BB0B2AC080915D024A
:1019400020914F0290E0049630E08217930724F034
:1019500080914F028834E0F084E080934E020E9430
:10196000D70B80915D028334B0F480915102909145
:101970005202892B81F480915C0286FF0FC0909106
:1019800053029F3159F080915C028F71891731F0B9
:101990008FEF9FEF05C081E090E002C080E090E013
:1019A000DF91CF910895CF9340935D02FB0120E03A
:1019B00030E050E02417350744F4D901A25ABD4F56
:1019C00091919C932F5F3F4FF5CF86FD04C0807EA1
:1019D00090915302890F80935C02609154028FEFC3
:1019E0009FEF0E94A30B909352028093510290911B
:1019F0005D028EEF891B80934E020E94CD0B8CE01E
:101A00000E94D70B60E085EA0E94BB0B80914E02DA
:101A10008330DCF588E20E94CA0B87FDF7CF809106
:101A20004E0287FF1BC090915D0280914E02E091B3
:101A30004C02F0914D02E90FF11DE80FF11D87FDF9
:101A4000FA95C3816C2F80915102909152020E94AD
:101A5000A30B90935202809351020DC080914E02CD
:101A6000882329F0813031F4C091520204C0C09122
:101A7000510201C0CAEA6C2F80E80E94BB0B809122
:101A80004E028F5F80934E02C1CFCF910895809117
:101A90004E02853009F04DC060E485EA0E94BB0B20
:101AA00084E20E94CA0B80935002789488E20E94DC
:101AB000CA0B8075D9F380914F0281110FC0E0915C
:101AC0004C02F0914D0280914F0291E0980F90935B
:101AD0004F0290915402E80FF11D908380E00E9424
:101AE000CA0BE0914C02F0914D0290914F0221E01F
:101AF000290F20934F02E90FF11D8083682F8091F9
:101B00005102909152020E94A30B90935202809333
:101B1000510280915D0220914F0290E0049630E0E6
:101B200082179307A4F080914F02883408F4BECF47
:101B3000089588E20E94CA0B83FF09C084E0809365
:101B40004E020E94D70B60E885EA0C94BB0B089507
:101B5000809159028F5F809359020895CF92DF924E
:101B6000EF92FF921F93CF93DF93C82F162FD42F9E
:101B7000F901AFEFA60FA33028F4B0E0AF5CBE4F81
:101B8000AC9101C0A0E0B0E020E836E948E950E0BF
:101B90000E9496276B017C01212F30E0A4ECB9E074
:101BA0000E948027DF019B01AC010E949627C60E90
:101BB000D71EE81EF91EC701B6010E94E30BD093A1
:101BC00054028C2F8F718093530264E170E080E0A7
:101BD00090E00E94B21F80915302882341F043E0BD
:101BE00050E067E47DE080E00E94AF1E03C080E02B
:101BF0000E94CF1E0E94180CC0935A028C2FDF91B6
:101C0000CF911F91FF90EF90DF90CF9008958BE5DB
:101C100092E00E94710C9093A4028093A302209101
:101C2000A3023091A40281E02F3F3F4F09F480E0EE
:101C300008950C94000C0C94D30CEF92FF921F9318
:101C4000CF93DF931F92CDB7DEB7182F7B01498367
:101C50000E94000C4981811105C049830E94070E32
:101C60004981F5CFB701812F0F90DF91CF911F915F
:101C7000FF90EF900C94D30CCF93C82F0E94110CBF
:101C80008823B9F0CC23D1F383B7817FC33021F00F
:101C9000C23021F49CE003C094E001C090E0892BA5
:101CA00083BF83B7816083BF889583B78E7F83BFEF
:101CB000E5CFCF9108959093140180931301089577
:101CC00090931C0180931B01BC01882777FD8095B0
:101CD000982F0E94062620911701309118014091FB
:101CE000190150911A010E94BA260E94D3257093BF
:101CF0003E0360933D030895909316018093150170
:101D00000895CF92DF92EF92FF926B017C01609376
:101D10001701709318018093190190931A01609133
:101D20001B0170911C01882777FD8095982F0E94D8
:101D300006269B01AC01C701B6010E94BA260E948B
:101D4000D32570933E0360933D03FF90EF90DF90A7
:101D5000CF90089560930E0170930F01809310014E
:101D6000909311010895FC01EE0FFF1FEE0FFF1F6E
:101D7000EF58FC4F40835183628373830895FC01C5
:101D8000EE0FFF1FEE0FFF1FE35AFC4F40835183FE
:101D9000628373830895FC01EE0FFF1FEF54FC4F25
:101DA000808191810895FC01EE0FFF1FEE0FFF1F50
:101DB000E356FC4F6081718182819381089581E0B7
:101DC000809312010E94831F6093BB037093BC0336
:101DD0008093BD039093BE03EAE7F0E087E0808341
:101DE0008081806880838081806280838081886038
:101DF0008083808180648083789408952F923F92BD
:101E00004F925F926F927F928F929F92AF92BF920A
:101E1000CF92DF92EF92FF920F931F93CF93DF93B6
:101E200000D000D0CDB7DEB7E0901301F0901401E0
:101E300040900E0150900F016090100170901101C0
:101E400051E7252E53E0352E61EC862E62E0962E6A
:101E50000DEA12E08DE593E09A8389837FE3C72E34
:101E600073E0D72EE9E8AE2EE3E0BE2E1C821B8283
:101E7000EB81FC81EE15FF05B4F5F1012191319163
:101E8000419151911F01C301B2010E94BA26F40190
:101E900061937193819391934F01F8011192119283
:101EA000119211928F01E981FA8161917191819171
:101EB0009191FA83E98320E030E040E853E40E9406
:101EC000BA260E94D325F601619371936F01F50143
:101ED00011921192119211925F018B819C81019656
:101EE0009C838B83C5CF80E090E0A2E0B0E080933C
:101EF000590390935A03A0935B03B0935C0380E073
:101F00009CE9A1E0B0E08093550390935603A09321
:101F10005703B093580380E094E6A2E0B0E08093CA
:101F2000510390935203A0935303B09354030E9420
:101F3000DF0E60911B0170911C01882777FD809551
:101F4000982F0E9406262091170130911801409188
:101F5000190150911A010E94BA260E94D32570934C
:101F60003E0360933D031092BF030F900F900F90BC
:101F70000F90DF91CF911F910F91FF90EF90DF9025
:101F8000CF90BF90AF909F908F907F906F905F9019
:101F90004F903F902F900895EAE7F0E087E080832C
:101FA000808180688083808180838081808380813C
:101FB00080831092850308952F923F924F925F92F3
:101FC0006F927F928F929F92AF92BF92CF92DF9249
:101FD000EF92FF920F931F93CF93DF93CDB7DEB7AE
:101FE00062970FB6F894DEBF0FBECDBF20901301ED
:101FF000309014018091170190911801A09119015E
:10200000B0911A0189879A87AB87BC87A1ECB2E0AF
:10201000BA83A983E1EBF3E0FC83EB8341E753E070
:102020005E834D838DE993E098878F830DEA12E0FC
:10203000A9E8EA2EA3E0FA2E1A8A198A49895A8950
:10204000421553050CF0BCC0C988DA88CC0CDD1CE5
:10205000CC0CDD1CF601E550FD4F60817181828161
:102060009381A981BA812D913D914D915D91BA8362
:10207000A983A090E102B090E2022D873E874F87AE
:10208000588B0E9406262D853E854F8558890E94D3
:10209000BA262B013C01B501882777FD8095982F42
:1020A0000E9406269B01AC01C301B2010E946B2570
:1020B0004B015C0120E030E040E05FE30E9403253B
:1020C0000E94D325EB81FC8161937193FC83EB83A8
:1020D000F601E951FD4F60817181828193812091E8
:1020E000E1023091E202442737FD4095542F0E94CF
:1020F0000328CA01B9010E9406260E942127AD814A
:10210000BE812D913D914D915D91BE83AD830E9425
:10211000BA26EF81F8856193719381939193F88743
:10212000EF8329853A854B855C85C501B4010E9402
:10213000BA26D8012D913D914D915C910E940325C5
:102140004B015C0120E030E041E655E40E946B2544
:102150000E94D3252B01662457FC6094762CF7014E
:102160002081318142815381240D351D461D571D2B
:10217000D7012D933D934D935D937D01E0E1FEE00A
:10218000E69F9001E79F300DF69F300D1124B901B5
:10219000882777FD8095982F0E9406269B01AC0129
:1021A000C501B4010E940225D8016D937D938D93E2
:1021B0009D938D01E989FA893196FA8BE98B3ECF9F
:1021C0006091E3027091E4028091E5029091E60251
:1021D0002091E1023091E202442737FD4095542FCF
:1021E0000E940328CA01B9010E9406260E942127E5
:1021F00020910E0130910F01409110015091110179
:102200000E94BA260E94D3257093870360938603A9
:1022100062960FB6F894DEBF0FBECDBFDF91CF91AF
:102220001F910F91FF90EF90DF90CF90BF90AF90F4
:102230009F908F907F906F905F904F903F902F90E6
:1022400008958091BF03882331F01092BF030E944C
:10225000DC0F81E0089580E008958091D90290918B
:10226000DA022091D5023091D6028217930731F01D
:102270002091AC022F5F2093AC0202C01092AC02FE
:102280002091AC02222331F01092AC029093D8023C
:102290008093D7020895CF92DF92EF92FF920F932F
:1022A0001F93CF93DF938091850381110E94CC0F00
:1022B0002091D7023091D8028091D5029091D60218
:1022C0002130310509F0E3C0019709F430C1809154
:1022D000AA029091AB0201969093AB028093AA025E
:1022E0000E94831F6093BB037093BC038093BD0364
:1022F0009093BE032091AA023091AB028091150108
:1023000090911601281739079CF1809112018823BA
:1023100079F1109212011092AB021092AA02209150
:10232000130130911401E9E2F3E0A5E1B3E080E0AC
:1023300090E08217930754F4119211921192119226
:102340001D921D921D921D920196F3CF10921103C2
:1023500010921203109213031092140387EE93E06D
:102360009093DE028093DD021092100310920F030F
:102370002091AA023091AB0280913D0390913E03DF
:10238000281739070CF4D3C0809112018111CFC0F6
:102390001092AB021092AA024091130150911401C5
:1023A000C5E1D3E009E2E02E03E0F02E20E030E0CA
:1023B000241735070CF5F70181919191A191B19105
:1023C0007F01B901660F771F660F771F8B010550DC
:1023D0001D4FF80180839183A283B38389919991E2
:1023E000A991B99169517D4FFB0180839183A283AB
:1023F000B3832F5F3F4FDCCF809111039091120385
:10240000A0911303B09114038093E3029093E4022C
:10241000A093E502B093E60280910F039091100320
:102420009093E2028093E1028091DD029091DE02BE
:102430009093DC028093DB02A5E1B3E0E9E2F3E0F4
:1024400080E090E08417950754F411921192119254
:1024500011921D921D921D921D920196F3CF109222
:10246000110310921203109213031092140387EEBB
:1024700093E09093DE028093DD021092100310929D
:102480000F0381E0809388038093BF0350C0892BA2
:1024900009F44DC080914D0390914E03A0914F03DC
:1024A000B0915003C6E0B595A79597958795CA95C5
:1024B000D1F74091590350915A0360915B03709199
:1024C0005C03840F951FA61FB71F80935903909339
:1024D0005A03A0935B03B0935C0310924D031092D8
:1024E0004E0310924F0310925003409155035091A8
:1024F0005603609157037091580384179507A607F8
:10250000B7076CF04091510350915203609153030F
:1025100070915403481759076A077B0744F44093A6
:10252000590350935A0360935B0370935C030E94BA
:10253000831F6B017C018091BB039091BC03A09130
:10254000BD03B091BE03C81AD90AEA0AFB0A60911A
:102550001B0170911C0188EE93E00E94CD279B0126
:10256000442737FD4095542FC701B6010E94E1274B
:1025700080913D0390913E03AA2797FDA095BA2F25
:1025800082179307A407B50708F081C00E94831F34
:102590006093BB037093BC038093BD039093BE0311
:1025A00081E0809312011092AB021092AA02409136
:1025B000130150911401E5E1F3E020E030E024172D
:1025C0003507DCF4B901660F771F660F771FDB0153
:1025D000A550BD4F1D921D921D921C921397819183
:1025E0009191A191B191EB01C951DD4F88839983FC
:1025F000AA83BB832F5F3F4FE2CF8091110390915D
:102600001203A0911303B09114038093E3029093FB
:10261000E402A093E502B093E60280910F0390914B
:1026200010039093E2028093E1028091DD02909189
:10263000DE029093DC028093DB02A9E2B3E0E5E1E5
:10264000F3E080E090E08417950754F41D921D920A
:102650001D921D9211921192119211920196F3CF37
:10266000109211031092120310921303109214038C
:1026700087EE93E09093DE028093DD0210921003C8
:1026800010920F031092880381E08093BF03DF91C3
:10269000CF911F910F91FF90EF90DF90CF90089511
:1026A0008F929F92AF92BF92CF92DF92EF92FF9262
:1026B0000F931F93CF93DF93C0907800D090790051
:1026C0004091A902E2E0E40F80911301909114017E
:1026D0002E2F30E0821793071CF4E1E0E40FE81B93
:1026E000F0E0EC5CFE4F8081805C80937C00809108
:1026F000A902811197C0C601AA2797FDA095BA2FFC
:10270000BA2FA92F982F88274091590350915A0327
:1027100060915B0370915C03841B950BA60BB70B58
:102720008093A5029093A602A093A702B093A8025B
:10273000181619061A061B063CF481E090E09093E7
:10274000DA028093D90204C01092DA021092D90200
:102750000E942D110E944B118091DF029091E002A6
:1027600001969093E0028093DF0280910F03909195
:10277000100301969093100380930F038090A5029D
:102780009090A602A090A702B090A802C501B40143
:1027900022E095958795779567952A95D1F79B01C6
:1027A000AC010E94A9273CE09595879577956795A0
:1027B0003A95D1F700911103109112032091130360
:1027C00030911403060F171F281F391F00931103A0
:1027D00010931203209313033093140380914D033D
:1027E00090914E03A0914F03B0915003880D991D15
:1027F000AA1DBB1D80934D0390934E03A0934F03DE
:10280000B09350038092490390924A03A0924B03E5
:10281000B0924C038091D7029091D8029093D60247
:102820008093D5021091A902E0911301F091140157
:10283000112309F486C0C12FD0E0EC17FD070CF47A
:1028400080C08BE0C816D1040CF47BC08090490393
:1028500090904A03A0904B03B0904C032197A2E0C4
:10286000DA1AEE24D7FCE094FE2C86E0CC0CDD1CBA
:10287000EE1CFF1C8A95D1F72091A5023091A6028B
:102880004091A7025091A802281939094A095B0909
:10289000DE01AA0FBB1FA15CBC4F0D90BC91A02D07
:1028A0000E94A127272F382F492F552747FD5A95DA
:1028B000280D391D4A1D5B1D62E0559547953795DA
:1028C00027956A95D1F7C701B6010E94A9274B0148
:1028D0005C01A7019601C701B6010E94A927CC0F90
:1028E000DD1FCC0FDD1F9E012B5E3C4FBCE095959C
:1028F000879577956795BA95D1F7D901CD90DD90F9
:10290000ED90FC901397C60ED71EE81EF91ECD92CF
:10291000DD92ED92FC921397C75DDC4F0CE0B5940D
:10292000A794979487940A95D1F788819981AA8171
:10293000BB81880D991DAA1DBB1D88839983AA831D
:10294000BB831F5F1093A902812F90E0E817F9075E
:1029500014F41092A902DF91CF911F910F91FF9073
:10296000EF90DF90CF90BF90AF909F908F900895A1
:102970001F920F920FB60F9211242F933F934F93F4
:102980005F936F937F938F939F93AF93BF93EF93D7
:10299000FF930E945013FF91EF91BF91AF919F91D0
:1029A0008F917F916F915F914F913F912F910F90F8
:1029B0000FBE0F901F901895FF920F931F93CF9308
:1029C000DF93FC010081C181D281F8948981F02ECE
:1029D000F0948F21898378941DE7115029F182E0CA
:1029E00090E00E94D81F88818023B9F3F8948A81EF
:1029F0008F218A838981802B8983789480EE91E06E
:102A00000E94D81FF89489818F21898386E490E001
:102A10000E94D81F8881802311E009F010E078948B
:102A20008AE991E00E94D81F812FDF91CF911F91F9
:102A30000F91FF9008951F93CF93DF93FC011081B6
:102A4000C181D281912F909560FF12C0F8948A8144
:102A500089238A838981812B89838AE090E00E947F
:102A6000D81F8A81812B8A83789487E390E011C0F4
:102A7000F8948A8189238A838981812B898381E4DF
:102A800090E00E94D81F8A81812B8A83789485E008
:102A900090E0DF91CF911F910C94D81F0F931F935B
:102AA000CF93DF93FC011081C181D281F894898199
:102AB000812B89838A81012F009580238A8383E07B
:102AC00090E00E94D81F8981802389838AE090E06A
:102AD0000E94D81FC881789485E390E00E94D81F97
:102AE0001C2381E009F480E0DF91CF911F910F91C9
:102AF0000895CF92DF92EF92FF920F931F93CF939F
:102B0000DF931F92CDB7DEB76C01E62E08E010E030
:102B1000FF24F39461E09F2D9E2109F460E0C6013B
:102B200049830E941B15FF0C0150110949810115B1
:102B3000110581F7411115C0F894D6011196ED9158
:102B4000FC91129791818C918095892381831196B4
:102B5000ED91FC91129792818C91809589238283CB
:102B600078940F90DF91CF911F910F91FF90EF908C
:102B7000DF90CF900895EF92FF920F931F93CF9322
:102B8000DF938C01C8E0D0E0F12CEE24E394C8017F
:102B90000E944E158111FE28EE0C21972097B9F75F
:102BA0008F2DDF91CF911F910F91FF90EF9008959E
:102BB000CF92DF92FF920F931F93CF93DF931F92D9
:102BC000CDB7DEB78C01F62E40E065E579830E9433
:102BD0007915CF2C7981D72E88E0F82EF6016191F6
:102BE0006F0140E0C8010E947915FA94B9F70F907F
:102BF000DF91CF911F910F91FF90DF90CF900895BB
:102C000040E06CEC0C947915FC0113861586148653
:102C100027E030E0DF01A20FB31F13961C922115AD
:102C2000310519F021503109F5CF08951F93CF9345
:102C3000DF93EC01162F60E0812F0E94171E612F99
:102C400070E0FB01E553FA4FE491E883FB01E152A8
:102C5000FA4FE491F0E0EE0FFF1FED50FA4F85912F
:102C600094919A838983CE01DF91CF911F910C9427
:102C70000416AF92BF92CF92DF92EF92FF920F9322
:102C80001F93CF93DF931F92CDB7DEB75C01D62E93
:102C9000E72EFC018585811164C0C50149830E942E
:102CA000DC144981811105C0F5011386158614864F
:102CB00071C0442319F040E060EF02C040E06CEEC8
:102CC000C5010E94791501E0F12CC12C11E0C5016C
:102CD0000E944E15682FC50169830E944E156981B7
:102CE000613019F48130B9F433C02F2D30E068130E
:102CF0001BC0F5018385181730F4E20FF31F8381A1
:102D0000802349F402C0181731F060E0193058F4FC
:102D1000F501148708C0F501EF0DF11D8381802BAB
:102D2000838361E009C0C12EF501E20FF31F8381A7
:102D3000902F909589238383C5010E941B151F5FE7
:102D4000000F11F4F39401E0F7E0FF1508F0BFCF96
:102D5000113438F0F501C386C11009C081E08587C0
:102D600006C0F50113861586148680E013C0F501B0
:102D700083818823B1F3ED2DFE2D80E090E0D50115
:102D8000A80FB91F13962C912193019688309105B5
:102D9000B1F781E00F90DF91CF911F910F91FF90DC
:102DA000EF90DF90CF90BF90AF900895DC0180E06E
:102DB000615038F0ED91E827F0E0E954FB4F849141
:102DC000F7CF08950895FC0182EE96E1928B818BF6
:102DD000768365831482108289E0818381E0828317
:102DE00083830895FC0184810895CF93DF93EB01E1
:102DF00067E0CE010E94D61691E02F81821390E009
:102E0000892FDF91CF910895EF92FF920F931F9337
:102E1000CF93DF9300D0CDB7DEB77C018A01FC01F0
:102E20008581968169837A830E94DC1469817A8125
:102E3000F701858196810E94D81540E06EEBF7017D
:102E4000858196810E947915F701858196810E947E
:102E5000BB15F8018083F701858196810E94BB151F
:102E6000F8018183F701858196810E94BB15F801E5
:102E70008283F701858196810E94BB15F8018383C7
:102E8000F701858196810E94BB15F8018483F701C3
:102E9000858196810E94BB15F8018583F7018581A4
:102EA00096810E94BB15F8018683F7018581968182
:102EB0000E94BB15F8018783F701858196810E94E6
:102EC000BB15F8018087F701858196810F900F90DF
:102ED000DF91CF911F910F91FF90EF900C94DC1434
:102EE000CF93DF93EA010E94041768E0CE010E94AD
:102EF000D61691E02885821390E0892FDF91CF913B
:102F00000895EF92FF920F931F93CF93DF93EC01FD
:102F10007B018A018D819E810E94DC14B7018D8125
:102F20009E810E94D81540E06EE48D819E810E94B2
:102F3000791540E0F80162818D819E810E947915AA
:102F400040E0F80163818D819E810E947915F7012F
:102F50008081803139F040E0F80164818D819E816B
:102F60000E9479158D819E810E94DC14488168E45D
:102F70008D819E810E9479158881882331F06AE0D5
:102F800070E080E090E00E94B21F8D819E81DF9111
:102F9000CF911F910F91FF90EF900C94DC14EF9262
:102FA000FF921F93CF93DF9300D0CDB7DEB77C01A4
:102FB000FC018581968169837A830E94DC14698192
:102FC0007A81F701858196810E94D81540E064EBF3
:102FD000F701858196810E947915F7018581968197
:102FE0000E944E15182FF701858196810E94DC14EE
:102FF00081E0111180E00F900F90DF91CF911F9130
:10300000FF90EF900895EF92FF920F931F93CF934D
:10301000DF93CDB7DEB72A970FB6F894DEBF0FBEA9
:10302000CDBF7C018B01242FAE014F5F5F4F2A87FC
:103030000E9470172A858823D1F0F80180818031A1
:10304000C1F02B3041F02C3021F02A3031F48FE3E5
:1030500005C08FE703C08FE501C08FE18D83AE010E
:103060004F5F5F4FB801C7010E94811702C080E027
:1030700001C081E02A960FB6F894DEBF0FBECDBF27
:10308000DF91CF911F910F91FF90EF900895CF9313
:10309000DF93CDB7DEB729970FB6F894DEBF0FBE2A
:1030A000CDBFFB0120812031D1F0AE014F5F5F4FDA
:1030B0000E947017882379F08D818F3351F018F4B6
:1030C0008F3169F008C08F3541F08F3721F48CE0E3
:1030D00007C08AE005C080E003C08BE001C089E042
:1030E00029960FB6F894DEBF0FBECDBFDF91CF910A
:1030F0000895FF920F931F93CF93DF93CDB7DEB761
:1031000061970FB6F894DEBF0FBECDBF8C01FC01F6
:10311000858196810E940416F801148241E0BE0167
:10312000665F7F4FF801858196810E94391688235A
:10313000D1F1BE01665F7F4FC8010E94F51688235A
:1031400069F3F8018081811108C0BE01665F7F4F7D
:10315000C8010E94CF17811122C0AE014F5F5F4F9F
:10316000BE01665F7F4FC8010E940417F801F1801D
:10317000BE01665F7F4FC8010E9447188F1518F483
:10318000F801818106C0BE01665F7F4FC8010E94C1
:103190004718F801818384818F5F8483BFCF81E0EA
:1031A000F8018083DACF61960FB6F894DEBF0FBEC8
:1031B000CDBFDF91CF911F910F91FF900895CF93D5
:1031C000DF93CDB7DEB729970FB6F894DEBF0FBEF9
:1031D000CDBFAE014F5F5F4F0E94041781E0998120
:1031E000911101C080E029960FB6F894DEBF0FBEA2
:1031F000CDBFDF91CF910895CF92DF92EF92FF92F2
:103200000F931F93CF93DF93EC018B01452BE1F0DC
:103210008B818823C9F08881811116C00E94831F89
:103220006B017C0160E070E0CE010E94DF1881112B
:103230000BC00E94831F6C197D098E099F096E3E89
:1032400072408105910570F3F80180818A3049F060
:103250008B3061F0893079F46EE570E080E090E0C9
:103260000EC06CEB70E080E090E009C067E771E0B1
:1032700080E090E004C06EEE72E080E090E0DF91CC
:10328000CF911F910F91FF90EF90DF90CF900C9412
:10329000B21FCF93DF93EC018D819E810E94DC14DD
:1032A0008D819E810E940016488164E48D819E81FB
:1032B0000E9479158A81882351F0BE016F5F7F4F8C
:1032C00040E050E0CE01DF91CF910C94FC18DF91EB
:1032D000CF9108958F929F92AF92BF92CF92DF923B
:1032E000EF92FF921F93CF93DF93FB01EA01698175
:1032F00070E0762F66278881682B80818232B1F159
:103300008832A1F1803109F078C01F8175956795E9
:10331000882777FD8095982F0E94062620E030E0D0
:1033200040E85EE30E9402256B017C01612F70E0A2
:103330008E81681B7109882777FD8095982F0E94E0
:1033400006264B015C01612F70E080E090E00E9456
:1033500004269B01AC01C501B4010E946B259B01B1
:10336000AC01C701B6010E94032543C08C818F3395
:1033700081F198F48F3109F040C093E0759567951D
:103380009A95E1F7882777FD8095982F0E94062669
:1033900020E030E040E05FE32AC08F3569F08F37EE
:1033A00061F5882777FD8095982F0E94062620E0FA
:1033B00030E040E85DE31BC075956795882777FD91
:1033C0008095982F0E94062620E030E040E05EE3E2
:1033D0000EC07595679575956795882777FD8095DB
:1033E000982F0E94062620E030E040E85EE30E942D
:1033F000BA26562F472F382F292F652F742F832F4A
:10340000922FDF91CF911F91FF90EF90DF90CF909F
:10341000BF90AF909F908F900895EF92FF920F937F
:103420001F93CF93DF93CDB7DEB729970FB6F894EC
:10343000DEBF0FBECDBF8C017B01AE014F5F5F4F82
:103440000E947017882341F0AE014F5F5F4FB701B4
:10345000C8010E946A1904C060E070E08EEF92EC2F
:1034600029960FB6F894DEBF0FBECDBFDF91CF9186
:103470001F910F91FF90EF9008958091F00390E0DD
:103480002091F103821B910908952091F10380910D
:10349000F003281750F4E22FF0E0EE50FC4F80814B
:1034A00090E02F5F2093F10308958FEF9FEF089531
:1034B000E091F1038091F003E81730F4F0E0EE5072
:1034C000FC4F808190E008958FEF9FEF089508955D
:1034D000CF92DF92EF92FF920F931F93CF93DF93E0
:1034E0007C01CB018A012091CC03222389F0EB01DE
:1034F0006B01C40ED51ECC15DD0569F06991D701AD
:10350000ED91FC910190F081E02DC7010995F3CF79
:10351000642F0E94731BC801DF91CF911F910F91FF
:10352000FF90EF90DF90CF900895CF93DF931F929D
:10353000CDB7DEB769832091CC032223D1F020914F
:10354000CD03203240F021E030E0FC0133832283C0
:1035500080E090E015C08091CE03E82FF0E0E153C9
:10356000FC4F998190838F5F8093CE038093CD032E
:1035700005C061E0CE0101960E94731B81E090E0DE
:103580000F90DF91CF910895FC011382128248EED3
:1035900053E060E070E044835583668377838EE375
:1035A00091E09183808308951092F1031092F003CB
:1035B0001092CE031092CD030C94021B81E08093F5
:1035C000CC036093EF031092CE031092CD030895C5
:1035D0000F93062F21E04091CD036FEC73E08091B3
:1035E000EF030E94201B1092CE031092CD03109285
:1035F000CC030F91089561E00C94E81A80EC93E0FD
:103600000C94C41A10927F0481E080937D04109280
:103610007C0461E082E10E94501E61E083E10E942F
:10362000501EE9EBF0E080818E7F808380818D7F6A
:10363000808388E48093B80085E48093BC0008957B
:103640000F93413208F046C090917F049111FCCF56
:1036500092E090937F0400937D049FEF9093120477
:103660001092570440935604FB0168E574E0DB01B7
:103670009A2F961B941718F491919D93F9CF10925D
:103680007E0490917E04880F892B80937E04809124
:103690007C04813041F410927C0480917E048093FC
:1036A000BB0085EC01C085EE8093BC00222321F095
:1036B00080917F048230E1F3809112048F3F61F0AA
:1036C00080911204803251F080911204803341F4D1
:1036D00083E007C081E005C080E003C082E001C054
:1036E00084E00F910895613298F420917F04243092
:1036F00089F460933404FC0186E394E0DC012A2F12
:10370000281B261718F421912D93F9CF80E00895F6
:1037100081E0089582E0089585ED8093BC0080915A
:10372000BC0084FDFCCF10927F04089585EC80934B
:10373000BC0010927F0408951F920F920FB60F9253
:1037400011242F933F934F935F936F937F938F93A6
:103750009F93AF93BF93EF93FF938091B900887FBE
:10376000803609F49CC068F5883209F45BC090F497
:10377000803109F454C038F4882309F4F5C0883046
:1037800009F44DC0F5C0883109F44CC0803209F409
:103790005DC0EEC0803409F468C048F4803309F499
:1037A00055C0883309F0E4C080931204A8C0803566
:1037B00009F44FC0883509F45DC0883409F0D8C0D9
:1037C000D5C0883909F4C6C0A8F4883709F467C0A1
:1037D00038F4883609F463C0803709F460C0C8C083
:1037E000883809F4B7C0803909F45FC0803809F01F
:1037F000BFC05BC0803B09F485C038F4803A09F44F
:1038000066C0883A09F47EC0B3C0803C09F4A6C003
:10381000883C09F4A3C0883B09F489C0A9C0809101
:103820007E0410C09091570480915604981770F54B
:10383000E091570481E08E0F80935704F0E0E85A3E
:10384000FB4F80818093BB0085EC85C08093120480
:103850008DC0E091570481E08E0F809357048091D2
:10386000BB00F0E0E85AFB4F8083909157048091B1
:1038700056046DC0E091570481E08E0F8093570489
:103880008091BB00F0E0E85AFB4F808380917D047B
:1038900081116CC081E080937C0484EA60C083E085
:1038A00080937F0410921304CFCF80911304803251
:1038B00008F050C0E091130481E08E0F8093130450
:1038C0008091BB00F0E0EC5EFB4F8083BDCF809128
:1038D0001304803230F4E0911304F0E0EC5EFB4F0F
:1038E00010820E948C1B6091130470E0E0917804B8
:1038F000F091790484E194E00995109213040E94F8
:10390000961B36C084E080937F0410923504109299
:103910003404E0917A04F0917B0409958091340499
:10392000811105C081E08093340410923604E09147
:10393000350481E08E0F80933504F0E0EA5CFB4FA4
:1039400080818093BB009091350480913404981756
:1039500008F47ACF85E88093BC000AC085EC809398
:10396000BC0010927F0404C0109212040E948C1BB1
:10397000FF91EF91BF91AF919F918F917F916F9147
:103980005F914F913F912F910F900FBE0F901F901D
:103990001895FC01138212828EE491E0918380835A
:1039A000648341872287138608951F93CF93DF9303
:1039B000EC01162F6C8180EC93E00E94DE1AE091FE
:1039C000C003F091C1036B85612B0190F081E02D64
:1039D00080EC93E0099580EC93E0DF91CF911F910B
:1039E0000C94FB1A28E0FC01238760E00C94D51CA2
:1039F0001F93CF93DF93EC01162F64600E94D51CB8
:103A000081E090E00E94D81F612F6B7FCE010E9461
:103A1000D51C82E390E0DF91CF911F910C94D81FC9
:103A20001F93CF93DF93EC01162F0E94D51C612FBB
:103A3000CE01DF91CF911F910C94F81CEF92FF9271
:103A40001F93CF93DF931F92CDB7DEB77C01162F64
:103A5000607F642B49830E94101D80E1189FB00194
:103A600011244981642BC7010F90DF91CF911F91E1
:103A7000FF90EF900C94101D41E00E941E1D81E00C
:103A800090E0089540E00C941E1D61E00E94421DEC
:103A900080ED97E00C94D81F62E00E94421D80EDFB
:103AA00097E00C94D81FCF93DF93CDB7DEB728975C
:103AB0000FB6F894DEBF0FBECDBF28E0EEE1F1E017
:103AC000DE01119601900D922A95E1F7FC01208507
:103AD000241710F44FEF420FFE013196E40FF11D51
:103AE000E40FF11D2081260F2068622F28960FB663
:103AF000F894DEBF0FBECDBFDF91CF910C94421D75
:103B0000FC016681262F246026836C600C94421D84
:103B1000CF93DF93EC01423018F08D8188608D8364
:103B20004887222329F0413019F48D8184608D83E8
:103B300062E370E080E090E00E94B21F6B85CE01EE
:103B40000E94D51C68EE73E080E090E00E94B21FF6
:103B500060E3CE010E94101D84E991E10E94D81F0C
:103B600060E3CE010E94101D84E991E10E94D81FFC
:103B700060E3CE010E94101D86E990E00E94D81FEC
:103B800060E2CE010E94101D6D816062CE010E9434
:103B9000421D84E08E83CE010E94801DCE010E94D2
:103BA000451D82E08F8366E0CE010E94421DCE015A
:103BB000DF91CF910C944C1DCF93DF93EC0180ECFF
:103BC00093E00E94D41A1D8220E04A856985CE01C7
:103BD000DF91CF910C94881D0C94DC1D833081F013
:103BE00028F4813099F08230A1F008958630A9F050
:103BF0008730B9F08430D1F4809180008F7D03C08C
:103C0000809180008F7780938000089584B58F77AE
:103C100002C084B58F7D84BD08958091B0008F77F8
:103C200003C08091B0008F7D8093B0000895CF9342
:103C3000DF9390E0FC01E553FA4F2491FC01E1523F
:103C4000FA4F8491882349F190E0880F991FFC0175
:103C5000E95FF94FA591B49183509A4FFC01C5914A
:103C6000D4919FB7611108C0F8948C91209582235C
:103C70008C93888182230AC0623051F4F8948C912D
:103C8000322F309583238C938881822B888304C0C4
:103C9000F8948C91822B8C939FBFDF91CF910895E4
:103CA0000F931F93CF93DF931F92CDB7DEB7282FCB
:103CB00030E0F901E954FA4F8491F901E553FA4FE4
:103CC0001491F901E152FA4F04910023C9F08823BD
:103CD00021F069830E94EE1D6981E02FF0E0EE0F74
:103CE000FF1FE350FA4FA591B4919FB7F8948C91C0
:103CF000611103C01095812301C0812B8C939FBF5C
:103D00000F90DF91CF911F910F910895CF93DF9383
:103D1000282F30E0F901E954FA4F8491F901E55375
:103D2000FA4FD491F901E152FA4FC491CC2391F0AA
:103D300081110E94EE1DEC2FF0E0EE0FFF1FED5001
:103D4000FA4FA591B4912C912D2381E090E021F4BC
:103D500080E002C080E090E0DF91CF910895823052
:103D6000E8F4E82FF0E0EE0FFF1FE058FB4F7183FF
:103D70006083813041F0809169008C7F842B809337
:103D80006900E89A089580916900440F551F440F17
:103D9000551F837F842B80936900E99A08958230B0
:103DA00068F4813011F0E89801C0E998E82FF0E05C
:103DB000EE0FFF1FE058FB4F1182108208951F92F3
:103DC0000F920FB60F9211242F933F934F935F934F
:103DD0006F937F938F939F93AF93BF93EF93FF93D3
:103DE0008091800490918104892B29F0E0918004D6
:103DF000F09181040995FF91EF91BF91AF919F914F
:103E00008F917F916F915F914F913F912F910F9083
:103E10000FBE0F901F9018951F920F920FB60F9222
:103E200011242F933F934F935F936F937F938F93BF
:103E30009F93AF93BF93EF93FF93809182049091F0
:103E40008304892B29F0E0918204F0918304099581
:103E5000FF91EF91BF91AF919F918F917F916F9162
:103E60005F914F913F912F910F900FBE0F901F9038
:103E700018951F920F920FB60F9211242F933F9314
:103E80008F939F93AF93BF93809185049091860405
:103E9000A0918704B09188043091840423E0230F1B
:103EA0002D3720F40196A11DB11D05C026E8230F72
:103EB0000296A11DB11D20938404809385049093E4
:103EC0008604A0938704B09388048091890490911C
:103ED0008A04A0918B04B0918C040196A11DB11DA0
:103EE0008093890490938A04A0938B04B0938C04EC
:103EF000BF91AF919F918F913F912F910F900FBEE6
:103F00000F901F9018952FB7F894609185047091C9
:103F1000860480918704909188042FBF08953FB74D
:103F2000F8948091890490918A04A0918B04B091B7
:103F30008C0426B5A89B05C02F3F19F00196A11D42
:103F4000B11D3FBF6627782F892F9A2F620F711DF1
:103F5000811D911D42E0660F771F881F991F4A95AA
:103F6000D1F70895CF92DF92EF92FF92CF93DF9334
:103F70006B017C010E948F1FEB01C114D104E1048D
:103F8000F10479F00E948F1F6C1B7D0B683E73401B
:103F9000A0F381E0C81AD108E108F108C851DC4F4C
:103FA000ECCFDF91CF91FF90EF90DF90CF9008950D
:103FB0000197009739F0880F991F880F991F029772
:103FC0000197F1F70895789484B5826084BD84B533
:103FD000816084BD85B5826085BD85B5816085BD04
:103FE000EEE6F0E0808181608083E1E8F0E010821D
:103FF000808182608083808181608083E0E8F0E05E
:10400000808181608083E1EBF0E080818460808347
:10401000E0EBF0E0808181608083EAE7F0E080817E
:1040200084608083808182608083808181608083DE
:104030008081806880831092C10008958E3008F0DE
:104040008E50877020911D0190E4299F90011124CA
:10405000822B80937C0080917A00806480937A0028
:1040600080917A0086FDFCCF8091780020917900C4
:1040700090E0922B08951F93CF93DF93182FEB01BD
:1040800061E00E94171E209711F460E004C0CF3F4A
:10409000D10539F461E0812FDF91CF911F910C940C
:1040A000501EE12FF0E0E954FA4FE491E330F9F0CB
:1040B00048F4E130B9F0E230A1F584B5806284BD06
:1040C000C8BD34C0E630E9F0E73019F1E43049F515
:1040D00080918000806280938000D0938B00C09399
:1040E0008A0024C084B5806884BDC7BD1FC080918C
:1040F0008000806880938000D0938900C0938800FE
:1041000015C08091B00080688093B000C093B30068
:104110000DC08091B00080628093B000C093B40065
:1041200005C0C038D1050CF0B5CFAFCFDF91CF912E
:104130001F910895CF92DF92EF92FF920F931F93FA
:10414000CF93DF936C017A01EB01E60EF71E00E0DE
:1041500010E0CE15DF0561F06991D601ED91FC917B
:104160000190F081E02DC6010995080F191FF1CFCC
:10417000C801DF91CF911F910F91FF90EF90DF90D9
:10418000CF9008956115710581F0DB010D9000203D
:10419000E9F7AD0141505109461B570BDC01ED9188
:1041A000FC910280F381E02D099480E090E0089575
:1041B000EF92FF920F931F93CF93DF938C01FB013C
:1041C000C0E0D0E064917F018FEFE81AF80A66231F
:1041D00061F0D801ED91FC910190F081E02DC801D2
:1041E0000995C80FD91FF701EDCFCE01DF91CF910F
:1041F0001F910F91FF90EF9008950C94C220DC0165
:10420000ED91FC910190F081E02D09940F931F93A3
:10421000CF93DF93EC016DE00E94FF208C016AE0F8
:10422000CE010E94FF20800F911FDF91CF911F913F
:104230000F9108950F931F93CF93DF93EC010E948A
:10424000D8208C01CE010E940621800F911FDF91A2
:10425000CF911F910F9108958F929F92AF92BF922D
:10426000CF92DF92EF92FF920F931F93CF93DF9342
:10427000CDB7DEB7A1970FB6F894DEBF0FBECDBFA6
:104280007C01C42EE52FCB01D22E19A221E02D15E1
:1042900010F02AE0D22E8E010F5D1F4F8D2C912C35
:1042A000A12CB12C6C2D7E2FA50194010E94E12739
:1042B0008C2DD29E80191124015011098A3014F4DA
:1042C000805D01C0895CF8018083211531054105BD
:1042D000510521F0C22EE32FCA01E4CFB801C70176
:1042E0000E94C220A1960FB6F894DEBF0FBECDBFCC
:1042F000DF91CF911F910F91FF90EF90DF90CF90C2
:10430000BF90AF909F908F900895CF92DF92EF92E1
:10431000FF920F931F93CF93DF93EC016A017B0110
:104320002115310579F4E881F9810190F081E02DC2
:10433000642FDF91CF911F910F91FF90EF90DF904D
:10434000CF9009942A303105E9F477FF1AC06DE265
:104350000E94FF208C0144275527BA014C195D09A2
:104360006E097F092AE0CE010E942C21800F911F47
:10437000DF91CF911F910F91FF90EF90DF90CF9041
:1043800008952AE0B701A601CE01DF91CF911F91D8
:104390000F91FF90EF90DF90CF900C942C219A0119
:1043A000AB01662757FD6095762F0C9485210F93FE
:1043B0001F93CF93DF93EC019A01AB01662757FD62
:1043C0006095762F0E9485218C01CE010E940621E6
:1043D000800F911FDF91CF911F910F9108952115AB
:1043E000310541F4DC01ED91FC910190F081E02D6B
:1043F000642F09940C942C219A01462F50E060E020
:1044000070E00C94EF219A01AB0160E070E00C9435
:10441000EF214F925F926F927F928F929F92AF9215
:10442000BF92CF92DF92EF92FF920F931F93CF93A1
:10443000DF93EC016A017B01B22E9A01AB01C70147
:10444000B6010E945F27882319F062E571E027C05A
:1044500026013701E89477F82FEF3FEF4FE75FE74A
:10446000C301B2010E945F2781110DC02FEF3FEF02
:104470004FE75FE7C301B2010E94672518161CF4DD
:1044800066E571E00CC02FEF3FEF4FE75FE4C70137
:10449000B6010E94B6261816ACF46AE571E0CE01AA
:1044A000DF91CF911F910F91FF90EF90DF90CF9010
:1044B000BF90AF909F908F907F906F905F904F9044
:1044C0000C94C2202FEF3FEF4FE75FECC701B6011E
:1044D0000E94672587FDE1CF20E030E0A901C701F8
:1044E000B6010E94672587FF0AC06DE2CE010E94D7
:1044F000FF208C01F7FAF094F7F8F09402C000E086
:1045000010E0A12C60E070E080E09FE3AB1441F08C
:1045100020E030E040E251E40E946B25A394F6CF06
:104520009B01AC01C701B6010E9403256B017C0110
:104530000E94D8252B013C010E9404269B01AC015E
:10454000C701B6010E9402256B017C012AE0B3017C
:10455000A201CE010E942C21080F191FBB2039F0A7
:104560006DE271E0CE010E94C220080F191F7B2C62
:10457000772041F120E030E040E251E4C701B6018C
:104580000E94BA266B017C010E94D3254B01AA240C
:1045900097FCA094BA2C2AE030E0B501A401CE012A
:1045A0000E948521080F191FC501B4010E9406262B
:1045B0009B01AC01C701B6010E9402256B017C0181
:1045C0007A94D6CFC801DF91CF911F910F91FF90C0
:1045D000EF90DF90CF90BF90AF909F908F907F90A3
:1045E0006F905F904F9008950C9409220F931F9342
:1045F000CF93DF93EC010E9409228C01CE010E942F
:104600000621800F911FDF91CF911F910F91089587
:104610000E94E31F0E940D08C7EED3E20E94FC082F
:104620002097E1F30E94E723F9CFFC01248535852B
:10463000F901E05CFF4F80819181F901EE5BFF4F52
:1046400020813181821B930B8F7399270895FC0180
:1046500084859585FC01E05CFF4F40815181FC0120
:10466000EE5BFF4F208131814217530741F00190EB
:10467000F081E02DE80FF91F808190E008958FEF21
:104680009FEF0895FC0184859585FC01E05CFF4F58
:1046900040815181FC01EE5BFF4F20813181421747
:1046A000530779F0A081B181A80FB91F8C912081A7
:1046B00031812F5F3F4F2F7333273183208390E069
:1046C00008958FEF9FEF0895FC0181A1882329F0C1
:1046D000A489B5898C9186FFFBCF11A20895CF9351
:1046E000DF93FC0126853785D901A05CBF4F8D91F2
:1046F0009C91119701968F739927E901CE5BDF4F4B
:104700004881598184179507D9F30D90BC91A02D4C
:10471000A20FB31F6C93A685B785A05CBF4F1196FF
:104720009C938E93A689B7892C9181E090E0078CA9
:1047300002C0880F991F0A94E2F7282B2C9381E07E
:1047400081A30488F589E02D80818064808381E0E5
:1047500090E0DF91CF91089508951F920F920FB6C8
:104760000F9211242F933F934F938F939F93EF9327
:10477000FF938091C00082FD1CC04091C6008091D3
:1047800033059091340501968F7399272091350553
:10479000309136058217930771F0E0913305F0915F
:1047A0003405ED50FB4F40839093340580933305DF
:1047B00002C08091C600FF91EF919F918F914F9120
:1047C0003F912F910F900FBE0F901F9018958DE87D
:1047D00094E00E941523892B11F00C94AC230895CA
:1047E0001F920F920FB60F9211242F933F938F9326
:1047F0009F93EF93FF932091EF043091F004809109
:10480000F1049091F2042817390731F48091C10026
:104810008F7D8093C10014C0E091F104F091F20407
:10482000E155FB4F20818091F1049091F2040196B3
:104830008F7399279093F2048093F1042093C6001C
:10484000FF91EF919F918F913F912F910F900FBE0C
:104850000F901F901895CF92DF92EF92FF92CF9317
:10486000DF93EC016A017B01411581EE5807610578
:104870007105F9F0EC89FD8981E090E008A002C0A3
:10488000880F991F0A94E2F7808360E079E08DE356
:1048900090E0A70196010E94E127215031094109CA
:1048A00051095695479537952795211580E1380789
:1048B00098F0EC89FD89108260E874E88EE190E060
:1048C000A70196010E94E1272150310941095109B0
:1048D0005695479537952795E889F9893083EA8970
:1048E000FB89208319A2EE89FF89408181E090E055
:1048F0009C010C8C02C0220F331F0A94E2F7422B5A
:104900004083EE89FF8940819C010D8C02C0220FFB
:10491000331F0A94E2F7422B4083EE89FF894081DE
:104920009C010E8C02C0220F331F0A94E2F7422B27
:104930004083EE89FF8920810F8C02C0880F991F68
:104940000A94E2F7809582238083DF91CF91FF90D4
:10495000EF90DF90CF9008951092900410928F0402
:1049600088EE93E0A0E0B0E08093910490939204ED
:10497000A0939304B093940482E691E090938E0404
:1049800080938D0483EF94E090939A04809399042C
:104990008FEA94E090939C0480939B0485EC90E0D4
:1049A00090939E0480939D0484EC90E09093A004E7
:1049B00080939F0480EC90E09093A2048093A104E4
:1049C00081EC90E09093A4048093A30482EC90E0A7
:1049D0009093A6048093A50486EC90E09093A8049D
:1049E0008093A70484E08093A90483E08093AA04C1
:1049F00087E08093AB0485E08093AC0481E08093F2
:104A0000AD0408955058BB27AA270ED075C166D1B2
:104A100030F06BD120F031F49F3F11F41EF45BC1F4
:104A20000EF4E095E7FB51C1E92F77D180F3BA1777
:104A3000620773078407950718F071F49EF58FC11C
:104A40000EF4E0950B2EBA2FA02D0B01B9019001A9
:104A50000C01CA01A0011124FF27591B99F0593FED
:104A600050F4503E68F11A16F040A22F232F342F35
:104A70004427585FF3CF469537952795A795F04083
:104A80005395C9F77EF41F16BA0B620B730B840B98
:104A9000BAF09150A1F0FF0FBB1F661F771F881F50
:104AA000C2F70EC0BA0F621F731F841F48F48795A8
:104AB00077956795B795F7959E3F08F0B3CF939597
:104AC000880F08F09927EE0F979587950895D9D00C
:104AD00008F481E008950CD00FC107D140F0FED05A
:104AE00030F021F45F3F19F0F0C0511139C1F3C02B
:104AF00014D198F39923C9F35523B1F3951B550BA2
:104B0000BB27AA2762177307840738F09F5F5F4FA0
:104B1000220F331F441FAA1FA9F333D00E2E3AF0E1
:104B2000E0E830D091505040E695001CCAF729D0FB
:104B3000FE2F27D0660F771F881FBB1F261737074A
:104B40004807AB07B0E809F0BB0B802DBF01FF277A
:104B500093585F4F2AF09E3F510568F0B6C000C1E0
:104B60005F3FECF3983EDCF3869577956795B795B4
:104B7000F7959F5FC9F7880F911D9695879597F9CF
:104B80000895E1E0660F771F881FBB1F6217730748
:104B90008407BA0720F0621B730B840BBA0BEE1F5D
:104BA00088F7E095089504D06894B111D9C00895AC
:104BB000BCD088F09F5790F0B92F9927B751A0F03B
:104BC000D1F0660F771F881F991F1AF0BA95C9F7A1
:104BD00012C0B13081F0C3D0B1E00895C0C0672FDA
:104BE000782F8827B85F39F0B93FCCF38695779551
:104BF0006795B395D9F73EF490958095709561953A
:104C00007F4F8F4F9F4F0895E89409C097FB3EF464
:104C100090958095709561957F4F8F4F9F4F992309
:104C2000A9F0F92F96E9BB279395F6958795779587
:104C30006795B795F111F8CFFAF4BB0F11F460FF47
:104C40001BC06F5F7F4F8F4F9F4F16C0882311F09F
:104C500096E911C0772321F09EE8872F762F05C0B3
:104C6000662371F096E8862F70E060E02AF09A954E
:104C7000660F771F881FDAF7880F9695879597F943
:104C80000895990F0008550FAA0BE0E8FEEF1616DD
:104C90001706E807F907C0F012161306E407F50730
:104CA00098F0621B730B840B950B39F40A2661F0A4
:104CB000232B242B252B21F408950A2609F4A14047
:104CC000A6958FEF811D811D089597F99F6780E854
:104CD00070E060E008959FEF80EC089500240A944E
:104CE0001616170618060906089500240A941216C7
:104CF0001306140605060895092E0394000C11F4FA
:104D0000882352F0BB0F40F4BF2B11F460FF04C0A6
:104D10006F5F7F4F8F4F9F4F089557FD9058440FFF
:104D2000551F59F05F3F71F04795880F97FB991F0A
:104D300061F09F3F79F087950895121613061406C7
:104D4000551FF2CF4695F1DF08C016161706180654
:104D5000991FF1CF86957105610508940895E8942F
:104D6000BB2766277727CB0197F908958ADF08F4D8
:104D70008FEF08950BD0C0CFB1DF28F0B6DF18F069
:104D8000952309F0A2CFA7CF1124EACFC6DFA0F365
:104D9000959FD1F3950F50E0551F629FF001729FD0
:104DA000BB27F00DB11D639FAA27F00DB11DAA1FEF
:104DB000649F6627B00DA11D661F829F2227B00D3C
:104DC000A11D621F739FB00DA11D621F839FA00DC7
:104DD000611D221F749F3327A00D611D231F849F17
:104DE000600D211D822F762F6A2F11249F5750406E
:104DF0008AF0E1F088234AF0EE0FFF1FBB1F661F09
:104E0000771F881F91505040A9F79E3F510570F0C1
:104E10005CCFA6CF5F3FECF3983EDCF386957795A9
:104E20006795B795F795E7959F5FC1F7FE2B880FBC
:104E3000911D9695879597F9089511F40EF44BCF2F
:104E400042C073DFD0F39923D9F3CEF39F57550BAC
:104E500087FF47D00024A0E640EA9001805856958D
:104E6000979528F4805C660F771F881F20F026171F
:104E70003707480730F4621B730B840B2029312954
:104E80004A2BA69517940794202531254A2758F7D1
:104E9000660F771F881F20F026173707480730F462
:104EA000620B730B840B200D311D411DA09581F702
:104EB000B901842F9158880F969587950895E1DE62
:104EC000880B990B08959F3F31F0915020F48795FE
:104ED00077956795B795880F911D9695879597F962
:104EE000089591505040660F771F881FD2F708959C
:104EF0000E948027332312F48A1B9B0B0C9491276A
:104F0000A29FB001B39FC001A39F700D811D11240A
:104F1000911DB29F700D811D1124911D08950E9455
:104F20008027B7FF0895821B930B08950E94802766
:104F3000A59F900DB49F900DA49F800D911D1124ED
:104F40000895B7FF0C9496270E949627821B930B17
:104F50000895DB018F939F930E949627BF91AF9195
:104F6000A29F800D911DA39F900DB29F900D1124C3
:104F70000895AA1BBB1B51E107C0AA1FBB1FA617A0
:104F8000B70710F0A61BB70B881F991F5A95A9F7F2
:104F900080959095BC01CD01089597FB072E16F4DE
:104FA000009407D077FD09D00E94B92707FC05D0EF
:104FB0003EF4909581959F4F0895709561957F4F30
:104FC0000895A1E21A2EAA1BBB1BFD010DC0AA1F4A
:104FD000BB1FEE1FFF1FA217B307E407F50720F062
:104FE000A21BB30BE40BF50B661F771F881F991FDD
:104FF0001A9469F760957095809590959B01AC0126
:10500000BD01CF010895052E97FB1EF400940E9468
:105010001A2857FD07D00E94E12707FC03D04EF461
:105020000C941A2850954095309521953F4F4F4F3D
:105030005F4F089590958095709561957F4F8F4F44
:105040009F4F0895EE0FFF1F0590F491E02D0994F6
:04505000F894FFCF02
:10505400D20005010101140E9443333382439A991B
:10506400593F0104000A000000803F3200010000A3
:105074004000140054005B656D6F6E50692E005D36
:10508400002B565A00010203040500000000951A83
:10509400681A3D1A451A581A671A000000003C1D88
:1050A4009A206E616E00696E66006F76660000007D
:0E50B40000006F239A20152342232723642334
:00000001FF
